:020000040800F2
:10000000381100200101000831240008491F0008B0
:1000100071210008F7090008C52A00080000000047
:10002000000000000000000000000000DB240008C9
:100030005D0A000800000000D9240008D925000846
:100040001B0100081B0100081B0100081B01000820
:100050001B0100081B0100081B0100081B01000810
:100060001B0100081B0100081B0100081B01000800
:100070001B0100081B0100081B0100081B010008F0
:100080001B0100081B0100081B0100081B010008E0
:100090001B0100081B0100081B0100081B010008D0
:1000A0001B0100081B0100081B0100081B010008C0
:1000B0002D2600081B0100081B0100081B01000879
:1000C0001B0100081B0100081B0100081B010008A0
:1000D0001B010008B92A00081B0100081B010008C9
:1000E0001B0100081B0100081B010008DFF80CD0F1
:1000F00000F01EFC00480047812D00083811002048
:100100000648804706480047FEE7FEE7FEE7FEE7B1
:10011000FEE7FEE7FEE7FEE7FEE7FEE72B26000828
:10012000ED000008202A04DB203A21FA02F0002129
:10013000704721FA02F3D040C2F1200291400843F7
:1001400019467047D2B201E000F8012B491EFBD2DC
:1001500070470022F6E710B513460A4604461946D2
:10016000FFF7F0FF204610BD421C10F8011B0029CC
:10017000FBD1801A7047F0B480EA0102D40F42002C
:10018000B2EB410F02D20246084611464A0042D065
:10019000C30DDDB2C1F3C752AD1A202D35DAC1F35C
:1001A000160141F4000204B15242C5F1200602FAE0
:1001B00006F12A411044B3EBD05F23D0C4B1012D26
:1001C000A0EBC35009DCF0BC4FF0004202EAC3527E
:1001D000DBB200F5000000F0DFBA400000F18070F3
:1001E00000EBC350A0F1807040EAD170490009E0F3
:1001F000490841EAC071A0EBC35000F50000400877
:1002000000EBC350F0BC00F0BEBA6142012202EB29
:100210004101001BF6E7F0BC704781F00041AAE7FE
:1002200080F00040A7E780EA010210B502F0004329
:10023000400022D04A001FD0010E01EB1261C0F332
:100240005600C2F3560240F4000042F40002A0FB44
:10025000022000047F39140400D0401C50EA1240F0
:1002600001D44000491EC2B20C0604EBD010401C61
:100270004008802A02D003E0002010BD20F00100D9
:10028000002900DA0020184310BD30B480EA0102D2
:1002900002F0004530F0004221F0004013D090B150
:1002A000C30DD40DC2F31601C0F31600E41A41F4D5
:1002B000000140F400027D34914201D3641C00E04F
:1002C0004900002C02DA30BC002070474FF40000D7
:1002D0000023914201D3891A034340084FEA4101A8
:1002E000F7D151B1914202D14FF0004105E002D265
:1002F0004FF0010101E06FF0010103EBC45028440D
:1003000030BC00F040BA420005D0C0F3C7525242A0
:10031000914201DC0020704700EBC15070472DE98D
:10032000FE4F804681EA0300C00F0C46009021F08A
:10033000004123F00045B8EB0200A94105D2404638
:10034000214690461C460B46024623F000401043CF
:1003500047D0270DC7F30A00C3F30A510290401A91
:10036000019040286BDAC3F3130040F4801B00981F
:10037000924620B10023D2EB030A63EB0B0B0198EA
:100380005946C0F14002504600F0DCF906460D46E1
:1003900050465946019A00F0E4F910EB080061411B
:1003A000002487EA115284EAE7731A4340D0009A86
:1003B00062B3019A012A4FEA075215DC001B61EB78
:1003C00002014FF0004202EA0752CDE90042001C50
:1003D00041F5801132462B4600F01BFA03B0BDE810
:1003E000F08F40462146F9E7001B61EB0201001C3B
:1003F00041F5801300185B412018A2F5001747EB68
:10040000030140EAD570B6196D4111E06D084FEA5D
:10041000360645EAC0754FEA0752001B61EB020140
:10042000001C41F5801149084FEA30000019514184
:1004300032462B4603B0BDE8F04F00F0DBB9009820
:10044000012240000023D0EB020263EBE07300982E
:1004500021464FEAE074B8EB000061EB0401E9E7E4
:1004600083F000435BE781F0004158E72DE9FE4F40
:1004700081EA030404F0004421F0004100944FF0AD
:10048000000B23F0004350EA01045ED052EA03045B
:100490005BD0C3F30A54C1F30A552C44A4F2F334DD
:1004A0000194A0FB0254C1F3130141F48011C3F382
:1004B000130343F4801301FB024400FB034E840A40
:1004C000970A44EA815447EA8357A4FB07680295D8
:1004D0008D0A05FB07854FEA932C04FB0C54270576
:1004E000029D4FEA065847EA1637B5EB08056EEB52
:1004F000070C870E920E47EA811742EA8312A7FB88
:100500000201B6EB0B0164EB00042B0D43EA0C3344
:100510005E1844EB1C50DA465146E7FB0201C5F376
:1005200013044FEA0B3343EA14534FEA0432019C9D
:1005300043EA0603A4F10C040294009CCDE900B444
:1005400000F067F903B0BDE8F08F00200146F9E73D
:100550002DE9F04D81EA030404F0004B21F0004541
:1005600014464FF0000A23F0004150EA050220D063
:1005700054EA01021DD0C5F30A570246C5F313031E
:10058000C1F31300C1F30A5640F4801543F48013FD
:10059000A7EB0608101BD64608F2FD3873EB0500E2
:1005A00002D308F1010801E092185B41B8F1000F95
:1005B00003DA00200146BDE8F08D00204FF48011E1
:1005C000064684460EE0171B73EB050705D3121B86
:1005D00063EB050306434CEA010C49084FEA30007F
:1005E00092185B4150EA0107EDD152EA030012D0A4
:1005F00082EA040083EA0501084305D0101BAB41E1
:1006000006D20122002306E000224FF0004302E060
:100610006FF0010253101AEB06004CEB085110EB7F
:100620000A0041EB0B01BDE8F04D00F0E3B8C10F4B
:1006300080EAE0700844CA079623002100F0ACB8B5
:1006400096230022114600F0A7B80EB540F23341C0
:1006500002910021CDE900110A460B4600F0D9F8BD
:1006600003B000BD00F0004220F00040C10DC0F317
:10067000160040F400007F2901DA00207047962917
:1006800003DCC1F19601C84001E096398840002A98
:10069000F4D04042704720F00040C10DC0F3160076
:1006A00040F400007F2901DA00207047962903DC1E
:1006B000C1F19601C840704796398840704700F0F4
:1006C000004230F000400AD0C10D01F56071C0F366
:1006D000160042EA0151C20840071143704700204A
:1006E0000146704701F0004330B421F0004150EA68
:1006F000010206D00A0DA2F56072C1F31301002AAF
:1007000002DC30BC00207047440F44EAC104C10041
:10071000E01830BC00EBC25000F035B8002801DB17
:10072000C0F10040002901DBC1F100418142704766
:10073000002801DBC0F10040002901DBC1F10041CC
:1007400088427047202A04DB203A00FA02F1002098
:1007500070479140C2F1200320FA03F319439040FF
:100760007047202A06DBCB17203A41FA02F043EA11
:10077000E07306E041FA02F3D040C2F1200291405A
:100780000843194670470029A8BF7047401C49001C
:1007900008BF20F00100704710B4B0FA80FC00FAE6
:1007A0000CF050EA010404BF10BC704749B1CCF111
:1007B000200421FA04F411FA0CF118BF012121439D
:1007C0000843A3EB0C01CB1D4FEA00614FEA102058
:1007D00042BF002010BC704700EBC35010440029FA
:1007E000A4BF10BC7047401C490008BF20F00100A6
:1007F00010BC704710B5141E73F1000408DA401CD9
:1008000041F1000192185B411A4301D120F001002F
:1008100010BD2DE9F04D92469B4611B1B1FA81F21F
:1008200002E0B0FA80F220329046FFF78BFF0446D8
:100830000F4640EA0A0041EA0B0153465A46084374
:1008400013D0114653EA010019D0C8F140025046B6
:10085000FFF768FC05460E46504659464246FFF7EC
:1008600071FF084305D0012004E020463946BDE869
:10087000F08D0020054346EAE0762C4337430A9882
:100880006305E40AA0EB08000022FD0A44EA47548D
:100890000A3002D500200146E9E701051019694137
:1008A000DDE9084500196941BDE8F04DA2E770B5E2
:1008B00021F0004303430CD0C1F30A550024D5EBCB
:1008C000040564EB0403D617AD1AB34102DB002024
:1008D000014670BD201841EB025170BD0EB5C10F2D
:1008E00080EAE0700844CA07002140F233438DE8F3
:1008F0000E000A460B46FFF78CFF03B000BD000058
:1009000030B5041E71F1000404DB4FF00044404296
:1009100064EB0101141E73F1000405DB1C464FF06B
:100920000043524263EB0403994208BF904230BD3A
:10093000064C074D06E0E06840F0010394E807002C
:1009400098471034AC42F6D3FFF7D4FBA83D00081B
:10095000C83D00082DE9F04D00231A461B1A8A41B4
:1009600003DB00200146BDE8F08DC1F30A52C1F35C
:10097000130141F480154FF0000BD10702D100188C
:100980006D41521E0027044640F2FF11384601EB2C
:10099000620A3E468046024600204FF48011FFF76F
:1009A000C1FBC2197141BB1846EB0100B4EB030C4B
:1009B00075EB000C04D3E41A65EB000517460E46F0
:1009C000241908F101006D4180463428E3DDF9194E
:1009D00046EB0600091BA84103D24FF0FF32134635
:1009E00001E0002213461BEB070046EB0A51BDE86D
:1009F000F04DFFF7FFBEFEE710B52C214843FFF78F
:100A000024FE074A074BFFF731FD0022064BFFF794
:100A10009FFDFFF767FEFFF73EFE80B210BD0000AE
:100A2000CDCCCCCCCC4C3540008076404FF4B4716A
:100A300048432C21B0FBF1F010B5FFF706FE054A44
:100A4000054BFFF785FDFFF74DFEFFF724FE80B253
:100A500010BD0000CDCCCCCCCC4C3540704770479D
:100A600010B590F821100022022905D004218163DD
:100A700080F82020012010BD01680B6823F00E03D0
:100A80000B6001680B6823F001030B6090F84030A5
:100A9000C46B012101FA03F3636080F8211080F830
:100AA0002020104610BD000010B590F82110002441
:100AB000022903D00421816301243DE001680A6812
:100AC00022F00E020A6001680A6822F001020A6040
:100AD0001A4A0168914201D1012121E0174A1432DA
:100AE000914201D110211BE0144A2832914201D1D8
:100AF000891515E0114A3C32914201D189140FE069
:100B00000E4A5032914202D14FF4803108E00B4A34
:100B10006432914202D14FF4801101E04FF08071B4
:100B2000064A083A5160012180F82110002180F81E
:100B30002010416B01B18847204610BD08000240DB
:100B400070B5044600F004F90546601C02D0044864
:100B50000078044400F0FCF8401BA042FAD370BDBA
:100B6000400000202DE9F84FDFF8B891002409F18A
:100B7000040A0AF1040B23460F270BF1040EC9E007
:100B80000125A5402A40AA427DD1674ED1F804C074
:100B9000ACEB0608B44532D014DCBCF1030F3AD0FC
:100BA00009DCBCF1000F2AD0BCF1010F1CD0BCF154
:100BB000020F31D11DE0BCF1110F17D0BCF1120FA3
:100BC0002AD119E0B8F5881F19D006DCB8F5803FA6
:100BD00015D0B8F5801F1FD111E0B8F5001F0ED059
:100BE000B8F5041F18D10AE0CB6815E0CB681B1DCF
:100BF00012E0CB6808330FE0CB680C330CE08B6855
:100C00002BB1012B4FF0080303D0456104E004230E
:100C100002E0056100E00023FF2A01D8064601E05A
:100C200000F104064FEA840501D9A5F12005D6F8A4
:100C3000008007FA05FC28EA0C0803FA05F548EAE3
:100C40000508C6F800804D68ED0062D5374DAE69E5
:100C500046F00106AE61AD6924F0030605F001051A
:100C60000095334D06EB050CDCF80850A607360F4F
:100C700007FA06F825EA0805DFF8B880404503D1F1
:100C80004FF0000817E044E0DFF8AC80404502D1A7
:100C90004FF001080FE0DFF8A480404502D14FF08B
:100CA000020808E0DFF89880404502D14FF00308C1
:100CB00001E04FF0040808FA06F848EA0508CCF805
:100CC00008804D68D9F80060ED034D4601D5164304
:100CD00000E096432E604D68DAF80060AD0355469B
:100CE00001D5164300E096432E604D68DBF80060A6
:100CF000ED025D4601D5164300E096432E604D6837
:100D0000DEF80060AD02754601D5164300E096435B
:100D10002E60641C0D682A46E5407FF431AFBDE8C3
:100D2000F88F000000040140000011100010024084
:100D30000000014000080140000C0140001001408B
:100D4000001401400AB1016170470904FBE700008B
:100D50000148806870470000400000200248816818
:100D6000027811448160704740000020074810B5A8
:100D7000016841F010010160032000F075F80020C7
:100D800000F006F800F024F8002010BD002002401A
:100D900070B50D4D04464FF47A712878B1FBF0F030
:100DA0000A490968B1FBF0F000F0ECFA48B9102CE0
:100DB00007D200222146501E00F036F800206C6059
:100DC00070BD012070BD0000400000204C000020DC
:100DD0000C4808B5816941F001018161816901F028
:100DE00001010091C16941F08051C161C06900F009
:100DF000805000900448416821F0E06141F00071AA
:100E0000416008BD0010024000000140002809DBDD
:100E100000F01F02012191404009800000F1E02014
:100E2000C0F8001170470000F0B40E4B1B680C4670
:100E3000C3F30223C3F10705042D00D90425191DAE
:100E4000072901D2002300E0DB1E012606FA05F186
:100E5000491E214099409E40761E16403143F0BC09
:100E600001F05ABE0CED00E0064900F007020868E8
:100E70004FF6FF03184040EA0220034A104308607F
:100E8000704700000CED00E00000FA052DE9F04786
:100E90000F46050061D0434E306800F00700B842AD
:100EA00009D2306820F0070038433060306800F025
:100EB0000700B84251D128683B4C810712D5400742
:100EC00003D5606840F4E06060602878000703D5CF
:100ED000606840F4605060606068A96820F0F000CD
:100EE000084360602878C00728D06868012810D0BF
:100EF0002168022810D0890700292EDA616821F0C4
:100F0000030101436160FFF723FF804641F2883906
:100F10000DE021688903EFE78901EDE7FFF718FF8E
:100F2000A0EB0801494502D90320BDE8F0876068BD
:100F3000696800F00C00B0EB810FEFD1306800F071
:100F40000700B8420BD9306820F007003843306002
:100F5000306800F00700B84201D00120E5E72878AA
:100F6000400705D56068E96820F4E06008436060E8
:100F70002878000706D56068296920F4605040EAA7
:100F8000C100606000F038F86168084AC1F30311DD
:100F9000515CC8400649086006480068FFF7F8FE43
:100FA0000020C2E70020024000100240FE3C000882
:100FB0004C000020440000200448054900684968AE
:100FC000044AC1F30221515CC84070474C00002024
:100FD000001002400E3D00080448054900684968B9
:100FE000044AC1F3C221515CC84070474C00002044
:100FF000001002400E3D000812A185B00FC98DE817
:101000000F0014A0144A006804905168134801F0BE
:101010000C03042B10D0082B0ED1C1F38343C9035A
:101020001DF803000AD5516804AAC1F34041515C80
:101030000A4A5043B0FBF1F005B0704708494843F5
:10104000FAE7000002030405060708090A0B0C0D65
:101050000E0F1010010200000010024000127A0072
:1010600000093D002DE9F84F040070D02078C04DF4
:10107000C00749D06868C0F38100012807D06868BC
:10108000C0F38100022809D16868C00306D528682A
:10109000800339D560680028E7D035E06068B0F596
:1010A000803F0BD010B1B0F5A02F11D0286820F4EC
:1010B00080302860286820F4802002E0286840F40E
:1010C00080302860606890B1FFF742FE06460AE073
:1010D000286840F480202860F0E700BFFFF738FE62
:1010E000801B642873D828688003F7D50CE0FFF7CD
:1010F0002FFE064605E000BFFFF72AFE801B64288E
:10110000F0D828688003F7D420789A4E80074FF0F3
:1011100001094FF0000839D5686810F00C0F07D0AE
:101120006868C0F38100022809D16868C00306D44A
:101130002868800714D52069012808D110E02069AB
:10114000B0B1C6F80090FFF703FE074605E00AE1DC
:10115000FFF7FEFDC01B0228C4D828688007F7D51A
:101160002868616920F0F80040EAC10028600DE0BD
:10117000C6F80080FFF7ECFD074604E0FFF7E8FD46
:10118000C01B022823D828688007F7D420780007DE
:101190002CD57948A169D9B1C0F80090FFF7D8FDE6
:1011A000074604E0FFF7D4FDC01B02280FD8686A89
:1011B0008007F7D571484FF4FA510068B0FBF1F0A1
:1011C000009000BF0098411E0091FAD20EE080E02E
:1011D000C0F80080FFF7BCFD074604E0FFF7B8FD4C
:1011E000C01B022875D8686A8007F7D420784007AA
:1011F00060D5E8690027C00008D4E86940F0805055
:10120000E861E869012700F0805000905C480168BF
:10121000C90513D40168834641F480710160FFF76A
:1012200097FD824606E000BFFFF792FDA0EB0A00A3
:1012300064284ED8DBF80000C005F5D5E068012829
:101240000AD008B1052813D0286A20F001002862CE
:10125000286A20F0040002E0286A40F001002862B9
:10126000E06841F2883B98B1FFF772FD82460BE0DF
:10127000286A40F004002862EEE700BFFFF768FD2F
:10128000A0EB0A0159455AD8286A8007F6D50CE028
:10129000FFF75EFD824605E0FFF75AFDA0EB0A016D
:1012A00059454CD8286A8007F6D41FB1E86920F068
:1012B0008050E861E06988B36968C1F3810102295F
:1012C00044D00228C6F8608004D0FFF741FD0446F0
:1012D00038E034E0FFF73CFD074604E0FFF738FD57
:1012E000C01B02282BD828688001F7D4206AB0F5EB
:1012F000803F05D16868A16820F400300843686029
:10130000D4E908010843696821F47411084368604E
:10131000C6F86090FFF71CFD044606E025E000BF1C
:10132000FFF716FD001B022809D828688001F7D5B1
:101330001BE000BFFFF70CFD001B022802D90320B1
:10134000BDE8F88F28688001F4D40EE00128F7D0BA
:101350006868226A00F48031914204D1616A00F425
:101360007010884201D00120EAE70020E8E7000081
:101370000010024000004242800442424C00002023
:101380000070004010B5401EB0F1807F01D30120F5
:1013900010BD4FF0E02460610F21601701F0BCFB2D
:1013A0000020A06107202061002010BD7047704719
:1013B00070B590F83C20012A26D0012480F83C40EA
:1013C000022280F83D2003685A689D6822F070066A
:1013D0000A6832435A600D4B02689A4208D0B2F153
:1013E000804F05D00A4B9A4202D00A4B9A4204D150
:1013F000496825F080031943916080F83D40002141
:1014000080F83C10084670BD022070BD002C0140E1
:10141000000400400008004010B5040003D094F818
:101420003D0010B107E0012010BD002084F83C0011
:10143000204600F01FF8022084F83D00211D20689E
:1014400001F0FAF8012084F8460084F83E0084F8A0
:101450003F0084F8400084F8410084F8420084F89A
:10146000430084F8440084F8450084F83D000020DF
:1014700010BD000008B50068B0F1804F12D10A48D5
:10148000C16941F00101C161C069002200F00100A1
:10149000009011461C20FFF7C7FCBDE808401C2047
:1014A000FFF7B4BC08BD00000010024090F83D10EA
:1014B000012901D001207047022180F83D10016808
:1014C000CA6842F00102CA6000680B49884208D02D
:1014D000B0F1804F05D00949884202D008498842BE
:1014E00004D1816801F00701062903D0016841F0A9
:1014F0000101016000207047002C01400004004001
:101500000008004070B5044690F83C00012817D050
:10151000012584F83C50022084F83D002068826850
:1015200022F0770222F47F4282600868502830D08F
:101530000DDC20284DD005DC98B310283BD148E0C5
:10154000022070BD302844D0402834D139E06028D2
:1015500028D0702806D0B0F5805F2CD0B0F5005FA1
:1015600029D10AE0CB68D1E90121206801F0A7F870
:101570002068816841F0770109E0CB68D1E9012159
:10158000206801F09CF82068816841F48041816006
:1015900011E0CA684968206801F046F950212068C6
:1015A00007E016E0CA684968206801F04EF960213A
:1015B000206801F08EF884F83D50002084F83C004B
:1015C00070BDCA684968206801F02EF94021206882
:1015D000EFE7226801461046EBE72DE9F0410D46A2
:1015E000040003D094F83D0018B108E00120BDE8E4
:1015F000F081002084F83C00204600F041F80220F1
:1016000084F83D002068816844F2070291438160BC
:10161000211D206801F010F8226890689169166A0F
:101620002B68AF69034340F20330814341EA07214D
:10163000A868EF6908434FF6FC418843E96840EA2F
:101640000720014328692F6A000140EA0730084358
:1016500069686D6926F0220646EA051529439360FC
:101660002268906154F8460B0162012004F81F09BA
:10167000E0752076E0762077A0750020B7E70000BF
:1016800000B585B00021009101910291039100689D
:101690000D49884216D10D48C16941F00401C1616C
:1016A000C16901F004010491816941F0080181617F
:1016B0008069694600F008000490C020009004484A
:1016C000FFF750FA05B000BD0008004000100240CE
:1016D000000C014070B590F83E60044690F83F5011
:1016E00090F8423090F84320022021B104290ED016
:1016F000012E1BD114E0012E18D1012B16D184F834
:101700003E0084F8420001220021206820E0012DE3
:101710000CD1012A0AD184F83F0084F8430014E078
:10172000012D03D1012B01D1012A01D0012070BD6F
:1017300084F83E0084F83F0084F8420084F84300B7
:1017400001220021206800F0ADFF01220421206861
:1017500000F0A8FF2068016841F00101016000204D
:1017600070BD704770B50446006801694FF0000510
:10177000C943890715D4C168C943890711D4E91E33
:10178000016101202077206880698007204602D00F
:10179000FFF7E7FF04E000F0BFF8204600F062F931
:1017A000257720680169C943490717D4C168C9432F
:1017B000490713D46FF004010161022020772068EB
:1017C000806910F4407F204602D0FFF7CAFF04E092
:1017D00000F0A2F8204600F045F92577206801695D
:1017E000C943090716D4C168C943090712D46FF069
:1017F00008010161042020772068C0698007204625
:1018000002D0FFF7AEFF04E000F086F8204600F0BB
:1018100029F9257720680169C943C90617D4C16829
:10182000C943C90613D46FF0100101610820207765
:101830002068C06910F4407F204602D0FFF791FF76
:1018400004E000F069F8204600F00CF925772068E4
:101850000169C943C90708D1C168C943C90704D18F
:10186000891E0161204600F04DF920680169C943D5
:10187000090609D4C168C943090605D46FF080017F
:1018800001612046FFF792FD20680169C9434906BE
:1018900009D4C168C943490605D46FF0400101610C
:1018A000204600F053F920680169C94389060BD42A
:1018B000C168C943890607D46FF020010161204641
:1018C000BDE87040FFF773BD70BD000000B585B086
:1018D0000021009101910291039100680B49884217
:1018E00011D10B48816941F0040181618069694629
:1018F00000F004000490402000900220019003902A
:101900000448FFF72FF905B000BD000000040040B7
:101910000010024000080140704770B5044690F87E
:101920003C000D4601280AD0012084F83C0042B159
:10193000042A18D0082A2AD00C2A4DD139E00220D6
:1019400070BD206800F0CEFE2068816941F008017A
:1019500081612068816921F00401816120688169C9
:101960002A69114311E0206800F0E4FE20688169D3
:1019700041F4006181612068816921F480618161A5
:10198000206881692A6941EA0221816124E0206896
:1019900000F0FCFE2068C16941F00801C1612068C7
:1019A000C16921F00401C1612068C1692A6911433C
:1019B00011E0206800F016FF2068C16941F4006161
:1019C000C1612068C16921F48061C1612068C16979
:1019D0002A6941EA0221C161002084F83C0070BDFF
:1019E00010B5040003D094F83D0010B107E00120C9
:1019F00010BD002084F83C00204600F01FF80220B3
:101A000084F83D00211D206800F016FE012084F8B6
:101A1000460084F83E0084F83F0084F8400084F8D3
:101A2000410084F8420084F8430084F8440084F8BC
:101A3000450084F83D00002010BD000008B5006896
:101A40000649884208D10648C16941F00201C161D6
:101A5000C06900F00200009008BD000000040040D2
:101A6000001002407047000010B50446022249B140
:101A700004290ED0082913D094F84100012816D06B
:101A8000012010BD94F83E000128F9D184F83E20D1
:101A90000FE094F83F000128F2D184F83F2008E0DD
:101AA00094F840000128EBD184F8402001E084F84C
:101AB00041200122206800F0F5FD0F49206888428E
:101AC00003D1426C42F4004242642068884208D04C
:101AD000B0F1804F05D00949884202D008498842B8
:101AE00004D1816801F00701062903D0016841F0A3
:101AF00001010160002010BD002C014000040040E5
:101B0000000800400E4900680968884217D10D4856
:101B10000178082913D2DFE801F012121204121220
:101B2000121009490988C82902D8192000F03EBCC2
:101B300001210170002000F033BC00F043BB70476E
:101B4000180A00200400002006000020704770479B
:101B500070470000F8B5026804461068D168536900
:101B600010F00F0F4FF0000553D003F0010601F401
:101B7000907737435FD0C20705D0CA0503D5226CE2
:101B800042F001022264420705D5DA0703D0226C35
:101B900042F002022264820705D5DA0703D0226CE4
:101BA00042F004022264020707D501F0200232430A
:101BB00003D0226C42F008022264226C002A34D046
:101BC000800604D5880602D5204600F070FE206805
:101BD0004069216CC0F38010090700D430B320465F
:101BE00000F04DFE2068416949061BD5416921F08E
:101BF00040014161A06BA8B158494163A06BFEF759
:101C000053FF002811D0A06B416B01B0BDE8F0403C
:101C1000084783060FD58B060DD52046BDE8F84052
:101C200000F045BE2046FFF793FFF8BD2046FFF7C2
:101C30008FFF2564F8BD266B2023012E52D1C606E6
:101C400050D5CE064ED510685068009050694006B9
:101C50002AD5A16B086840680004000CEAD0A68D64
:101C60008642E7D9E0858869202818D0D06820F41A
:101C70008070D0602068416921F0010141612068D5
:101C8000416921F04001416184F83E3025632068BC
:101C9000C16821F01001C160A06BFEF7E1FEA08DCC
:101CA000E18D401A81B219E0A08DE18D401A81B218
:101CB000E08D0028BED00029BCD0D06820F4907000
:101CC000D0602068426922F00102426184F83E300F
:101CD00025632068C26822F01002C2602046FFF728
:101CE00036FFF8BD05062BD50D0629D594F83D0025
:101CF0002128F6D1A068B0F5805F01D12069B0B18C
:101D0000206A411C2162216800784860E08C401EF6
:101D10000004000CE084E4D12068C16821F0800157
:101D2000C1602068C16841F04001C160F8BD206A0F
:101D30000088C0F308005060206A801C2062E5E73C
:101D40004006F3D54806F1D5D168204621F0400180
:101D5000D16084F83D3000F0F6F8F8BD6F28000837
:101D600070B5040004D094F83D00002510B106E0E1
:101D7000012070BD84F83C50204600F023F8242058
:101D800084F83D002068C16821F40051C1602046FC
:101D900000F0E8FD2068016921F4904101612068AC
:101DA000416921F02A0141612068C16841F4005174
:101DB000C1602564202084F83D0084F83E000020A6
:101DC00070BD000030B585B00024009401940294E9
:101DD00003940068184988422CD11848816941F45D
:101DE00080418161816901F480410491816941F000
:101DF000040181618069124D00F0040004904FF4E9
:101E0000007000900220019003200390694628464C
:101E1000FEF7A8FE2815CDE900046946284602947D
:101E2000FEF7A0FE002211462520FEF7FDFF25202B
:101E3000FEF7ECFF05B030BD003801400010024055
:101E40000008014090F83E30202B0ED159B152B11C
:101E500090F83C30012B08D0012380F83C3000235F
:101E6000036300F0DBBD01207047022070470000D3
:101E7000054900680968884205D1044901200870B5
:101E8000034800F03FBB7047F00A00201800002014
:101E9000040A00202DE9F843044690F83D001F464F
:101EA00016460D4620284CD1C5B1BEB194F83C0071
:101EB000012846D0012084F83C004FF00008C4F807
:101EC0004080212084F83D00FEF742FFA684814631
:101ED000E684A068B0F5805F03D004E00120BDE88F
:101EE000F883206928B12E465FF0000584F83C8015
:101EF0000EE00026FAE78021204600F0AAFDA0B9F6
:101F0000AEB116F8010B21684860E08C401EE084F9
:101F1000E08C4B464FF0000200970028EBD14FF0C9
:101F20004001204600F095FD30B10320D7E735F899
:101F3000020BC0F30800E6E7202084F83D000020F3
:101F4000CDE70220CBE77047FEE700002DE9F04324
:101F500085B000242548009401940294039481697B
:101F600041F010018161816901F0100104918169E2
:101F700041F020018161816901F0200104918169B2
:101F800041F004018161816901F0040104918169DA
:101F900041F0080181618069DFF8548000F0080099
:101FA0004FF400550490002229464046FEF7CAFE31
:101FB000DFF840904FF44067002239464846FEF76C
:101FC000C1FE0095022601250396CDE9015469461C
:101FD0004046FEF7C7FD00970396CDE901546946D8
:101FE0004846FEF7BFFD05B0BDE8F0830010024093
:101FF00000100140000C014010B586B000241648C6
:10200000009401940294039404944FF08041059449
:1020100001606321C0E9011440F60F61C0E90314B7
:102020008461FFF7F9F908B1FEF719FD4FF480500C
:10203000009069460848FFF765FA08B1FEF70FFD02
:10204000049404A904480594FFF7B2F9002801D0CC
:10205000FEF705FD06B010BD180A002030B589B0A6
:10206000002407941C2168460894FEF772F816486D
:102070001449602501600921C0E9011541F61F419D
:10208000C0E903148461FFF7ABFC08B1FEF7E7FC7D
:10209000079407A90C480894FFF78AF908B1FEF7DE
:1020A000DEFCCDE9005402940022694606480494FF
:1020B000FFF733FC08B1FEF7D2FC0348FFF706FC3C
:1020C00009B030BD00040040600A002010B58CB09B
:1020D00024216846FEF73DF8002416480994144967
:1020E0000A94C0E900144FF6FF71C0E9024104618F
:1020F00084610320CDE900040120CDE902040494A9
:10210000CDE90540079469460A480894FFF765FA47
:1021100008B1FEF7A4FC099409A906480A94FFF740
:1021200047F9002801D0FEF79AFC0CB010BD000062
:1021300000080040A80A00200C4810B50A490160B8
:102140004FF4E1314160002181600C22C160C0E99F
:1021500004128161C161FFF703FE002803D0BDE8CE
:102160001040FEF77CBC10BD00380140F00A002092
:10217000FEE7000010B50F48FFF798F900210E4860
:10218000FFF772FC00210D48FFF7A4FA04210B4869
:10219000FFF7A0FA0A4800F097F900231A464FF01B
:1021A0007E51074800F080F9BDE81040012000F0A2
:1021B000DBB80000180A0020600A0020A80A0020EE
:1021C0005C0000202DE9F047DFF87CA1DAF8000080
:1021D000406A5E4D5E4CB0F5004000D54042E8607C
:1021E000616A206BFEF79AFA16D8D4F83080E76857
:1021F00041463846FEF717F84146FEF714F8FEF759
:1022000031FAFEF714FA064601213846FEF77BF84C
:102210004146FEF708F83EE0A16A206BFEF77EFA21
:102220000ED82769216B3846FDF7FDFF6169FDF780
:10223000A2FFFEF717FAFEF7FAF90646AF602DE0A7
:10224000D4E90B10FEF76AFA27D8D4F83090E76982
:1022500049463846FDF7E7FFD4F818800646494658
:102260004046FDF7E0FF4946FDF7DDFF3146FDF74B
:1022700082FF216AFDF77FFFFEF7F4F9FEF7D7F939
:10228000064601214046FEF73EF84946FDF7CBFFE2
:102290003946FDF770FFA86000E0A6683046FEF7FB
:1022A000FAF980B2FEF7A8FB06462861E868FEF757
:1022B000C7F907463046FEF7C3F90146254B3A46B3
:1022C000254800F0B7F8FEF7CDF900B2234E68605C
:1022D000002803DB012002E0404205E0002000F07E
:1022E00043F868680028F7DB316880B24863D4E9B6
:1022F0000B10FEF71DFA0ED2DAF800004FF4004181
:10230000416200206860A860206301202870316865
:10231000002048630BE0A88980B2FEF787FB0E4AD5
:10232000698802EB4102491CA2F8A4016980206B74
:10233000FEF7C5F90A4A0B4BFDF7F1FFFEF7D2F99C
:102340002063BDE8F0870000A80A002004000020F8
:10235000D00900200AD7233C5C000020600A00203E
:102360007B14AE47E17A843F70B54FF400610B4CAB
:102370004D1060B1012810D101222046FEF7E2FC89
:10238000002229462046BDE87040FEF7DBBC002253
:102390002046FEF7D7FC0122F3E770BD000C014098
:1023A0000149096848637047600A002070B51B49FD
:1023B0000968496AB1F5004100D54942184CE1600D
:1023C000FEF71AFB06462061E068FEF739F905467C
:1023D0003046FEF735F90146124B2A46124800F006
:1023E00029F8FEF73FF900B2104D6060002803DBCA
:1023F000012002E0404205E00020FFF7B5FF6068E1
:102400000028F7DB296880B24863074A6088A18901
:1024100002EB4002401C9182608070BDA80A00203F
:10242000040000200AD7233C5C000020600A002042
:10243000704700002DE9F04799460B4604461146C7
:102440001846FDF7EAFE1749054608602946206848
:10245000FDF7E9FE804629462069FDF78CFE064619
:10246000206149466068FDF7DEFE4FF0FF31FDF761
:102470004AFF3146FDF7D7FE07462846E168FDF7DB
:10248000CCFEA168FDF7CFFE4946FDF7FEFE0646ED
:1024900039464046FDF76FFE3146FDF76CFEE560BC
:1024A000BDE8F0870000002010B50C46034600F0A0
:1024B0000BF8C3E9004203499C604FF400400968EF
:1024C000486210BDA80A002000210161C1600148D6
:1024D00001607047000000207047704712220249D7
:1024E0000248FFF7AFBC0000040A0020F00A0020F9
:1024F000122202490248FFF7A5BC0000040A00208E
:10250000F00A002010B5154A01781278914223D1C3
:102510001249407C491C097888421DD104220121BE
:102520000F4801F0DBFB0D4C0068641E0322C4F869
:10253000070005210A4801F0D1FB0188A1808078BD
:10254000A07108221146064801F0C8FB0168C4F8D2
:102550000B104068C4F80F0010BD000019000020E7
:10256000040A00202DE9F041074615460E461220C8
:1025700000F06CFE0F4904464FF47A734A780270FB
:102580003868C4F801003088A4F80500B078E0711C
:102590002868A0606868E060C878207488786074F3
:1025A000122221460448FFF775FC2046BDE8F041A1
:1025B00000F0BEBB18000020F00A002030B5002358
:1025C00006E0C45CCD5CAC4201D0002030BD5B1C99
:1025D0009342F6DB012030BDFEF7C0BB30B58FB0B3
:1025E00028216846FDF7B5FD14210AA8FDF7B1FDC5
:1025F00001210804CDE90010002402940225049171
:10260000CDE907504FF4E01009906846FEF72AFD27
:102610000F20CDE90A056802CDE90C4002210AA885
:102620000E94FEF733FC0FB030BD70470148FFF742
:1026300099B80000180A0020F0B50268164B174C34
:10264000174D4FF08047984205D0B84203D0A042C2
:1026500001D0A84203D122F070064A683243984262
:1026600005D0B84203D0A04201D0A84203D122F441
:102670004074CA6822434C6922F0800222430260FF
:102680008A68C2620A688262984201D1096901635C
:1026900001214161F0BD0000002C01400004004018
:1026A0000008004010B501F01F030121046A9940A1
:1026B0008C430462016A9A401143016210BD10B557
:1026C000846842EA032224F47F440A43224382605E
:1026D00010BD826822F070020A4342F00701816057
:1026E0007047000030B5026A22F001020262026AFD
:1026F0004368846924F073050C682C4322F00205BA
:102700008A682A430A4DA8420BD122F00805CA68FC
:1027100023F440732A434D6922F004021D438B6960
:102720002B434360846149684163026230BD00000D
:10273000002C014030B5026A22F010020262026AE7
:10274000436884690D6824F4E64444EA05248D68EE
:1027500022F0200242EA05120B4DA8420ED1CD68AC
:1027600022F0800242EA05124D6923F4406343EAF5
:1027700085038D6922F0400243EA8503436084614A
:1027800049688163026230BD002C014030B5026AA5
:1027900022F480720262036A4268C46923F40073FF
:1027A00024F073050C682C438D6843EA05230C4D17
:1027B000A8420ED1CD6823F4006343EA05234D6996
:1027C00022F4405242EA05128D6923F4806342EA02
:1027D00005124260C4614968C163036230BD0000F4
:1027E000002C014030B5026A22F480520262046A71
:1027F0004268C3690D6823F4E64343EA05238D6804
:1028000024F4005444EA0534064DA84204D14D692D
:1028100022F4804242EA85124260C3614968016441
:10282000046230BD002C014010B5036A046A24F034
:1028300001040462846924F0F00444EA021423F0E1
:102840000A020A438461026210BD10B5036A23F0D4
:10285000100303628369046A23F4704343EA02327B
:1028600024F0A00343EA01118261016210BD10B59A
:10287000406A0021C185C184FFF76AF910BD016873
:10288000CA6822F49072CA6001684A6922F00102A3
:102890004A61016B012904D10168CA6822F0100263
:1028A000CA60202180F83E1000210163704708B5FE
:1028B00090F83E10222901D0022008BD82684FF412
:1028C00080539A4201D1016921B1816A9A421BD099
:1028D0004AB10AE00268816A5268C2F308020A80BB
:1028E000816A891C08E0026972B10268526802F0CC
:1028F0007F020A70816A491C8162C18D491E0904E8
:10290000090CC18503D019E002685268F1E701683B
:10291000CA6822F02002CA600168CA6822F4807284
:10292000CA6001684A6922F001024A61202180F8E8
:102930003E10016B012903D0FFF79AFA002008BD71
:10294000002101630168CA6822F01002CA600168B0
:102950000A68D20602D50A6849680091818DFFF79E
:10296000F6F8EBE770B5044600680169E26821F407
:102970004051114301612169A0680843616908431E
:102980002168CA6841F20C639A430243CA60206816
:102990004169A26921F44071114341611E492068D7
:1029A000884202D1FEF718FB01E0FEF705FB00EBC1
:1029B000C00101EB0012606864218000B2FBF0F3FB
:1029C000B3FBF1F36FF018067343B2FBF0F5B2FB03
:1029D000F0F605EB8305322303EB0515B5FBF1F5A6
:1029E000B6FBF1F605F0F00505EB0615B2FBF0F6C7
:1029F000B2FBF0F0B0FBF1F06FF01802504306EBC1
:102A0000800003EB0010B0FBF1F0216800F00F0034
:102A10002844886070BD00000038014081628285D2
:102A2000C28500210164222280F83E2080F83C10FB
:102A30000168CA6842F48072CA6001684A6942F05B
:102A400001024A610068C16841F02001C1600020B4
:102A500070472DE9F041984617460E460446069DFC
:102A60001DE0681C1BD02DB1FEF772F9A0EB080029
:102A7000A84214D92068C16821F4D071C1602068CF
:102A8000416921F001014161202084F83D0084F872
:102A90003E00002084F83C000320BDE8F08120685F
:102AA000006836EA000004D00020B842D9D00020E7
:102AB000F3E70120F9E700000148FFF74BB80000F9
:102AC000F00A0020FEE700000FB4084B10B504A97F
:102AD00002AA039800F0BCF8044602A9002000F006
:102AE00022F9204610BC5DF814FB0000272D0008D9
:102AF000490050EAC12018BF04204A0D18BF40F019
:102B0000010040F2FF72B2EB515F08BF40F00200DB
:102B1000012808BF052070470907090E002804DBBB
:102B200000F1E02080F80014704700F00F0000F181
:102B3000E02080F8141D70472DE9F0414F1E00EB96
:102B4000C7010446D1E9000115461E4637F00602CA
:102B50000DD02A463346FDF789FC7F1E04EBC703E0
:102B6000D3E90023FDF7DBFB37F00602F1D1022F9A
:102B700025D0042F13D0062F18BFBDE8F0812A46B8
:102B80003346FDF773FCD4E90A23FDF7C8FB2A4658
:102B90003346FDF76BFCD4E90823FDF7C0FB2A465A
:102BA0003346FDF763FCD4E90623FDF7B8FB2A465C
:102BB0003346FDF75BFCD4E90423FDF7B0FB2A465E
:102BC0003346FDF753FCD4E90223FDF7A8FB2A4660
:102BD0003346FDF74BFCD4E90023BDE8F041FDF797
:102BE0009EBB00000022134610460149FDF7B0BC11
:102BF0000000F03FFDF793BB00221346104611463C
:102C0000FDF7A6BC40F2013200204FF0E041FDF795
:102C10004EBE0000024A00201107FDF748BE00002A
:102C200001FDFFFF02E008C8121F08C1002AFAD107
:102C300070477047002001E001C1121F002AFBD13C
:102C400070470000014908607047000058000020EC
:102C50002DE9F84F9946924688460546002706E03A
:102C600025280AD051464A4690476D1C7F1C28787B
:102C70000028F5D13846BDE8F88F002315F8011F6C
:102C800018462E2915D115F8011F04232A290DD025
:102C90006FF02F022978A1F13004092C09D800EB3C
:102CA000800002EB400008446D1CF3E758F8040B69
:102CB0006D1C2A78002ADDD0632A07D0732A0FD032
:102CC000104651464A4690477F1C2AE018F8042BCC
:102CD0008DF8002000218DF801106E46012103E0DF
:102CE00058F8046B4FF0FF315A074FF0000401D43D
:102CF00009E0641C84420BDA8C42FADB325D002A64
:102D0000F7D105E0641C8C42FCDB305D0028F9D172
:102D1000274404E016F8010B51464A469047641ECA
:102D2000F8D26D1CA3E70A68531C0B601070704743
:102D300010B5002821D0114B0022001F196803E0B4
:102D4000814203D80A4649680029F9D152B1136873
:102D5000841A9C4204D1006818441060104602E0B6
:102D6000506000E0186039B102680B1A934203D139
:102D70000B681A4402604968416010BD5000002091
:102D800086B0FDF7F3FFFFF729FCFFF7DFF8FFF749
:102D9000D3F9FFF731F9FFF761F9FFF797F9FFF77B
:102DA000A7FBFFF7E7F9FF480121FF4CDFF8FCB371
:102DB000DFF8FC9301704FF000088246FD4D286853
:102DC000406A606099F80000002836D00422FAA119
:102DD000FB48FFF7F3FB08B1022126E00422F9A12A
:102DE000F748FFF7EBFB08B104211EE00422F7A12E
:102DF000F348FFF7E3FB08B1052116E00422F5A133
:102E0000EF48FFF7DBFB08B106210EE00422F3A137
:102E1000EB48FFF7D3FB08B1082106E00422F1A13B
:102E2000E748FFF7CBFB18B109218AF8001002E050
:102E300001208AF8000089F800809AF800000A282A
:102E4000BCD2DFE800F0050609055B6291FDFCFBE2
:102E5000B4E7FFF743FBB1E7E44AE549D848FFF799
:102E600081FBE4484646C0F80080D048FFF72CFBC1
:102E700029684FF400404862DF48DC4D06806878DE
:102E8000FDF7DEFBDD4F3946FDF7FFF906462878F2
:102E9000FDF7D6FB3146FDF76EF9CBF80000E87878
:102EA000FDF7CEFB3946FDF7F0F90646A878FDF7A9
:102EB000C7FB3146FDF75FF9CBF80400A879FDF7B1
:102EC000C4FB02460B460020CD4900F0F5F906464A
:102ED0000F466879FDF7B9FB32463B46FDF738FBF4
:102EE00006460F462879FDF7B0FB32463B46FDF714
:102EF00016FAFDF7F7FBCBF80800A3E1BB4ABC4983
:102F0000AF48FFF72FFB03211DE10025BA4F4646CE
:102F100023E0A548AA4ABBA10830FFF7D5FD2680CB
:102F20000BEB4500A670818A9F480A0A0C3082711B
:102F3000C171290A8170C5700670C72141700246AF
:102F40009949001FFFF70EFBA6602680A670E66079
:102F500028202661FDF7F4FD6D1C3888401E85424F
:102F6000D7DB89F800606BE1A04AA1499448FFF7DC
:102F7000F9FA8E48FFF7A8FAA3499C4EC1F80080E1
:102F80009C49C1F80080F57805F00F00FDF758FB6B
:102F9000009025F00F00FDF753FB0190B77838073C
:102FA000000DFDF74DFB054638090003FDF748FB12
:102FB0002946FDF7E0F80199FDF7DDF80099FDF7E6
:102FC000DAF8924907460860757905F00F00FDF7B9
:102FD00037FB009025F00F00FDF732FB04903579A8
:102FE0002807000DFDF72CFB039028090003FDF7CF
:102FF00027FB0399FDF7BFF80499FDF7BCF800998A
:10300000FDF7B9F8814905464860F079029000F073
:103010000F00FDF715FB0390029820F00F00FDF75D
:103020000FFB0290B6793007000DFDF709FB059004
:1030300030090003FDF704FB059902E089E06FE029
:1030400084E0FDF798F80299FDF795F80399FDF7EC
:1030500092F86E49064688604FF0FF313846FDF71A
:1030600052F96A49C86008464FF03F410561284659
:10307000FDF7D9F82946FDF7D6F83946FDF705F9E9
:10308000624948614FF03F413846FDF7CCF85F494F
:10309000886139463046FDF7C6F82946FDF7F5F850
:1030A0002946FDF768F85949C8614FF0FF312846B5
:1030B000FDF729F92946FDF7B6F83946FDF7E5F899
:1030C000294605900846FDF7AEF804904FF03F41C1
:1030D0003046FDF7A8F83146FDF7A5F83946FDF76B
:1030E000A2F80499FDF7D1F80599FDF796F847493C
:1030F000086239462846FDF7C8F844490746486241
:1031000029463046FDF7C1F84049886201463846F5
:10311000FDF731F83D49C8620846C0F8308091E0BB
:10312000324A33492648FFF71DFA32484646C0F86E
:1031300000801E48FFF7C8F929684FF40040486234
:103140002D48072106808AF8001037E689F80080AC
:103150007FE60026284F6DE01348194A29A1083060
:10316000FFF7B2FCA4F800800BEB460084F8028065
:103170000D4DB0F8A4010C35010AA971E87124487D
:103180000068FDF788FA010A29716871300AA87091
:10319000EE7038882A46801E010A2970687002493C
:1031A000101F37E0040000202C0000205C000020ED
:1031B00018000020A80A00205350494400000000D5
:1031C0001F0000204354554E000000004750494462
:1031D0000000000043534554000000004352554E88
:1031E0000000000047524D53000000002300002063
:1031F0001C000020140000200600002000002041D8
:10320000000024402573000010000020D009002099
:1032100000000020FFF7A6F9C4F80880A4F8008099
:1032200084F80280C4F80C801E20C4F81080FDF7DA
:1032300087FC761C3888401E86428DDB89F800802A
:10324000FFF74CF901208AF80000B7E5F0B50B3024
:10325000154D20F007010024144A0FE003688B424B
:103260000BD38B4205D95E1A43184768C3E9006740
:1032700000E04368136002C004E0021D10680028EB
:10328000ECD12046002802D1286808B10020F0BD0A
:10329000064A07481060074A121A22F00702C0E9DE
:1032A000002401202860D7E75400002050000020AF
:1032B0003C0B0020380D00202DE9F04D1D460C463A
:1032C00098B0174621F0004123F00043002814BFB6
:1032D0004FF0010C4FF0000C0CEB440CFE4A0CEBD1
:1032E00002064FEA620C66452BD33E0018BF01264A
:1032F00006EB45061644F94A964222D3F84A53EAA9
:10330000070C02D0944205D148B918B000201146EC
:10331000BDE8F08D002808BF4FF0000C01D04FF041
:10332000010C0CEB440212F5001F0AD8002F14BF49
:103330004FF0010C4FF0000C0CEB450212F5001F92
:1033400007D918B03A462B462146BDE8F04DFFF7A5
:1033500051BC0022DFF88CA3002CB8BF534526DAFD
:10336000DFF884C36345A8BF022220DADFF870C308
:103370009C451CDCDFF874C30CEB235CBCF1140F20
:1033800008DDCCF1340627FA06FC0CFA06F6BE423C
:103390000DD108E05FB9CCF1140623FA06FC0CFA53
:1033A00006F69E4203D10CF00102C2F1020251EA7C
:1033B000000C19D1002D17DA002C18BF022A01D0F9
:1033C000012A07D00220FFF73DFC18B0BDE8F04D00
:1033D000FFF708BC0220FFF735FCFFF703FC18B02D
:1033E00081F00041BDE8F08DB7F1000C6CD1534580
:1033F00025D104F1804212F5801201BF002800207F
:10340000B74918B008BFBDE8F08DB548884207DC61
:10341000002DA1BF6046294618B0BDE8F08D07E039
:10342000281E05DA80F0004118B06046BDE8F08D36
:10343000AF497944D1E9000118B0BDE8F08DDFF85B
:10344000A0C2634525D1002D1FDA19B1514512D113
:10345000D8B909E0002840F0EC82A24A214618B011
:1034600062F31E01BDE8F08D0020214618B060F324
:103470001E01BDE8F08D08DA18B02346BDE8F04D16
:10348000024600206146FDF763B818B02146BDE84A
:10349000F08D514518DAB5F1804F0DD0A5F1005CE3
:1034A000BCF1FF5C10D1B4F1000C0DDB18B061462B
:1034B000BDE8F04D00F0ECBB234618B00246BDE875
:1034C000F04D1946FCF7D2BF060024F0004C3BD16A
:1034D000D9B1514533D1002C06DD002DA1BF00200C
:1034E000514618B0BDE8F08D002C01DD002D1BDB2E
:1034F000002C13DA002D11DB012A4FF0000014BF5D
:1035000078497C4918B0BDE8F08D022A18BF002C1C
:103510000AD0012A08D1002C06DA0AE0002CB8BF34
:10352000002D11DA012A04D0002018B00146BDE8B0
:10353000F08D18B000204FF00041BDE8F08DA1F1F2
:103540004050B0F17F601AD0012000EBE47050EAE7
:10355000020421D0624C521E4FF0000B104304BFF6
:103560004FF0000B644C654883427CDD644A65483B
:1035700093421FDD884217DB002D25DB37E0002C4E
:1035800000DA4AB1022A0CBF01204FF0FF3018B018
:10359000BDE8F04DFDF7A2B90120FFF753FB18B0CD
:1035A000BDE8F04DFFF728BB4D4A8A4202DC002DF2
:1035B0000ADC1CE0814202DA002D18DA04E0484BF4
:1035C000994220DD002D12DD0220FFF73BFBFFF7C3
:1035D00019FB05460E460022534658462146FCF785
:1035E00045FF18B066F31E012846BDE8F08D0220A5
:1035F000FFF728FBFFF70EFB0A46214618B062F3DF
:103600001E01BDE8F08D002230466146FCF728FF20
:1036100080460E466FF00102FDF749F94FF0553232
:10362000394BFCF720FF42463346FCF71FFF0022D0
:10363000364BFCF718FF824642463346049110464B
:103640001946FCF713FF5246049BFCF70FFF8A460E
:1036500000904FF0C0422E4B40463146FCF706FF2B
:103660002C4A2B4B00E027E0CDE90601514600989B
:10367000FCF7FCFE82460191274A284B4046314622
:10368000FCF7F4FE5246019BFCF7EAFE82460B462D
:1036900002460591DDE90601FCF741FEDDE906235E
:1036A000002688463046FCF7DBFE5246059BFCF7B9
:1036B000DAFE024600F07EB90020B1F5801F07DA7D
:1036C000352230466146FDF7F2F806466FF03400C9
:1036D00000EB215024E00000FFFF1F00FFFF0F0060
:1036E0000000F03F0000F07F0000404301FCFFFFBE
:1036F0006A0900000000F0FF0000F0BF0000E04198
:103700000000F043FFFFEF3F5555D53F0000E03F7D
:103710004715F73FFE822B6544DF5DF80BAE543E44
:10372000A0F2FF300190C1F3130040F07F6141F03F
:1037300040510291FE498842D8BF002004DDFD4976
:103740008142C8BF012001DD0D9008E000200D90EE
:103750000198401C01900298A0F5801002900299F7
:10376000F54878440B910D9900EBC100D0E9002396
:103770000F9330460A920B99FCF772FECDE90601D1
:10378000DDE90A2130460F9BFCF7C9FD02460B46D6
:103790000020EA49FCF7DCFE059102460B4600904A
:1037A000DDE90601FCF762FE1490E5488A464FF019
:1037B000000878440299006812904FF0005040EAE7
:1037C00061010D980F9B01EB804000F500210991EC
:1037D0000A9A1298FCF744FE32460B9BFCF743FE14
:1037E00042465346FCF742FE064602914046514689
:1037F000099B129AFCF73AFEDDE90623FCF733FE3B
:103800003246029BFCF72CFE059B009AFCF72EFE2D
:103810000091149A0490534610461946FCF726FE70
:1038200006460246C7480B46029106217844FFF738
:1038300083F9CDE90510029B324610461946FCF784
:1038400015FEDDE90532FCF711FE059106465346EB
:1038500040461946149AFCF762FD009B049AFCF757
:1038600005FE3246059BFCF75AFDCDE905104246A0
:10387000534610461946FCF7F9FD0022B24B02915F
:103880000A90FCF74CFDDDE90532FCF748FD0E46D9
:103890004246AD4B4046FCF7E3FD029B0A9AFCF71B
:1038A000DFFDDDE90532FCF7DEFD424602910A90BC
:1038B000334610465146FCF7D9FDCDE90601534683
:1038C000149A02990A98FCF7D1FD8A460290334671
:1038D000424600990498FCF7C9FD5346029AFCF74A
:1038E0001EFD82460B4602460591DDE90601FCF706
:1038F00016FDDDE90623002088460646FCF7B0FDEC
:103900005246059BFCF7AFFD824609914FF060429D
:103910008E4B30464146FCF7A9FD049006918C4A37
:103920008A4B50460999FCF7A1FD82460291894ACB
:10393000894B30464146FCF799FD5246029BFCF705
:10394000EEFC864B7B440D9A03EBC203D3E90023C4
:10395000FCF7E5FC0E9007910198FCF7BFFF05917D
:10396000DDE9061382460E9A0498FCF7D8FC7C4ADF
:103970007A440D9B02EBC303D3E900230093029228
:10398000FCF7CDFC5246059BFCF7C9FC0026884697
:1039900052463046059BFCF763FD009B029AFCF7FC
:1039A0005FFD069B049AFCF75BFD079B0E9AFCF7F4
:1039B0005AFD024600200B46029038462946FCF785
:1039C00055FD824601912B4638461946029AFCF76E
:1039D00047FD32464346FCF749FD5246019BFCF742
:1039E0009EFC07468A463246434629460298FCF723
:1039F0003DFD05460E463A465346FCF790FC594AB3
:103A00008846914221DBA8EB020353EA000210D161
:103A10002A463346FCF724FDCDE90401524A534BB4
:103A200038465146FCF77BFCDDE90423FCF768FFD0
:103A300021D20220FFF706F9FFF7E4F80A462146F3
:103A400018B062F31E01BDE8F08D494B28F000422A
:103A50009A4210D3474A08EB020353EA00027FF46C
:103A6000C6AD2A463346FCF7FBFC3A465346FCF704
:103A700047FF7FF6BCAD0022019228F000403E498E
:103A80003E4A01EB2051824223DA481C4FF4801158
:103A900021FA00F040443A4AC0F30A517A44394BC3
:103AA000A1F2FF31CB4020EA0303C0F3130040F43E
:103AB0008010C1F11401C84012680190B8F1000FE4
:103AC000BCBF4042019028463146FCF7C9FC054680
:103AD0000E462A46334638465146FCF720FC4FF046
:103AE00000084246284B40460591FCF7BFFCCDE953
:103AF0000601264A264B40460599FCF7B7FC009183
:103B000002902A46334640460599FCF7A9FC3A46FE
:103B10005346FCF7A8FC1F4A1F4BFCF7A7FC009B71
:103B2000029AFCF7FCFB0746884602460B4635E046
:103B30008E9803007AB60B00B20500000000F03F3B
:103B4000EA050000180500000000084009C7EE3F24
:103B5000FD033ADCF5015B14E02F3EBEF0030000EC
:103B6000B403000000009040FE822B654715973C8F
:103B700000CC904000346F3F01FCFFFF0000E03FAD
:103B800000030000FFFF0F00432EE63F396CA80C36
:103B9000615C20BEEF39FAFE422EE63FDDE9060108
:103BA000FCF7BDFBDDE9062305460E46FCF758FC95
:103BB0003A464346FCF757FC0F462A4633460090E8
:103BC00010461946FCF752FC824602462E488846AB
:103BD0000B4605217844FEF7AFFF52464346FCF7FB
:103BE00045FC2A463346FCF73EFC80468A463B4667
:103BF00028463146009AFCF739FC3B46009AFCF710
:103C00008EFB0691009000224FF0804340465146C3
:103C1000FCF726FC0F460C90424653462846314698
:103C2000FCF724FC3B460C9AFCF792FC069B009A9E
:103C3000FCF716FC2A463346FCF712FC0022134B15
:103C4000FCF711FC054601980E4601EB00510815E2
:103C5000002810DC28463146019AFCF728FEFEF7C2
:103C600047FF042808BFFEF7D5FF28463146019AD2
:103C7000FCF71DFE05460B4618B02A46584621465D
:103C8000BDE8F04DFCF7F2BBA00100000000F03FE2
:103C90002DE9F04106460F46FCF75CFE041E0D467A
:103CA00018BF0120284320F00040C0F17F6000F1E0
:103CB000E040C00F0ED0301C18BF0120384320F068
:103CC0000040C0F17F6000F1E040C00F04BF012060
:103CD000FEF7B8FF20462946BDE8F08170B54518CB
:103CE000002605F8016C144601E02E55641C284698
:103CF000FCF73AFA401CA042F7D8284670BD0000F5
:103D0000000000000000010203040607080900008B
:103D10000000010203040000000000000000F03F6A
:103D2000000000000000F83F00000000000000005C
:103D30000000004003B8E23F000000000000000067
:103D400006D0CF43EBFD4C3E033333333333E33FF5
:103D5000FFAB6FDBB66DDB3F4D268F515555D53F21
:103D600001411DA96074D13F65DBC9934A86CD3FEF
:103D7000EF4E454A287ECA3F3E5555555555C53FDD
:103D800093BDBE166CC166BF2CDE25AF6A56113FCF
:103D9000F16BD2C541BDBBBED0A4BE726937663ED1
:103DA0000000000000000000C83D000800000020E6
:103DB0005C000000242C0008243E00085C00002069
:103DC000DC100000342C000800000000000000009F
:103DD00000000000000000000000000000000000E3
:103DE00000020306000000000000000000000000C8
:103DF00000000000000000000000000000000000C3
:103E000000000000000000000100000010000000A1
:103E1000000000000024F40000000000000000008A
:043E2000000000009E
:04000005080000ED02
:00000001FF
